{
  "contractName": "Recruitment",
  "abi": [
    {
      "inputs": [],
      "stateMutability": "nonpayable",
      "type": "constructor"
    },
    {
      "inputs": [
        {
          "internalType": "string",
          "name": "msg",
          "type": "string"
        }
      ],
      "name": "Unauthorized",
      "type": "error"
    },
    {
      "anonymous": false,
      "inputs": [
        {
          "indexed": false,
          "internalType": "uint256",
          "name": "jobId",
          "type": "uint256"
        },
        {
          "indexed": false,
          "internalType": "address",
          "name": "applicantAddr",
          "type": "address"
        }
      ],
      "name": "JobApplication",
      "type": "event"
    },
    {
      "anonymous": false,
      "inputs": [
        {
          "indexed": false,
          "internalType": "address",
          "name": "applicant",
          "type": "address"
        }
      ],
      "name": "NewApplicant",
      "type": "event"
    },
    {
      "inputs": [
        {
          "internalType": "uint256",
          "name": "",
          "type": "uint256"
        }
      ],
      "name": "jobs",
      "outputs": [
        {
          "internalType": "string",
          "name": "title",
          "type": "string"
        }
      ],
      "stateMutability": "view",
      "type": "function",
      "constant": true
    },
    {
      "inputs": [
        {
          "internalType": "string",
          "name": "title",
          "type": "string"
        },
        {
          "internalType": "string[]",
          "name": "requirements",
          "type": "string[]"
        }
      ],
      "name": "postAJob",
      "outputs": [],
      "stateMutability": "nonpayable",
      "type": "function"
    },
    {
      "inputs": [
        {
          "internalType": "string",
          "name": "email",
          "type": "string"
        },
        {
          "internalType": "string[]",
          "name": "qualifications",
          "type": "string[]"
        },
        {
          "internalType": "string[]",
          "name": "skills",
          "type": "string[]"
        }
      ],
      "name": "newApplicant",
      "outputs": [],
      "stateMutability": "nonpayable",
      "type": "function"
    },
    {
      "inputs": [
        {
          "internalType": "uint256",
          "name": "job",
          "type": "uint256"
        }
      ],
      "name": "applyForAJob",
      "outputs": [],
      "stateMutability": "nonpayable",
      "type": "function"
    },
    {
      "inputs": [],
      "name": "getAppliedJobs",
      "outputs": [
        {
          "internalType": "string[]",
          "name": "",
          "type": "string[]"
        }
      ],
      "stateMutability": "view",
      "type": "function",
      "constant": true
    }
  ],
  "bytecode": "0x608060405234801561001057600080fd5b50336000806101000a81548173ffffffffffffffffffffffffffffffffffffffff021916908373ffffffffffffffffffffffffffffffffffffffff1602179055506111c9806100606000396000f3fe608060405234801561001057600080fd5b50600436106100575760003560e01c8063180aedf31461005c57806348aee51e1461008c578063707c450a146100aa5780638d756458146100c6578063ddd58c09146100e2575b600080fd5b61007660048036038101906100719190610985565b6100fe565b6040516100839190610a4b565b60405180910390f35b6100946101b4565b6040516100a19190610b79565b60405180910390f35b6100c460048036038101906100bf9190610db6565b610435565b005b6100e060048036038101906100db9190610e2e565b610549565b005b6100fc60048036038101906100f79190610985565b61068a565b005b6002818154811061010e57600080fd5b906000526020600020906002020160009150905080600001805461013190610f04565b80601f016020809104026020016040519081016040528092919081815260200182805461015d90610f04565b80156101aa5780601f1061017f576101008083540402835291602001916101aa565b820191906000526020600020905b81548152906001019060200180831161018d57829003601f168201915b5050505050905081565b60606000600160003373ffffffffffffffffffffffffffffffffffffffff1673ffffffffffffffffffffffffffffffffffffffff168152602001908152602001600020600101805461020590610f04565b90501115610248576040517f973d02cb00000000000000000000000000000000000000000000000000000000815260040161023f90610fa7565b60405180910390fd5b6000600160003373ffffffffffffffffffffffffffffffffffffffff1673ffffffffffffffffffffffffffffffffffffffff16815260200190815260200160002060030180549050905060008167ffffffffffffffff8111156102ae576102ad610ba5565b5b6040519080825280602002602001820160405280156102e157816020015b60608152602001906001900390816102cc5790505b50905060005b8281101561042c576002600160003373ffffffffffffffffffffffffffffffffffffffff1673ffffffffffffffffffffffffffffffffffffffff168152602001908152602001600020600301828154811061034557610344610fc7565b5b90600052602060002001548154811061036157610360610fc7565b5b9060005260206000209060020201600001805461037d90610f04565b80601f01602080910402602001604051908101604052809291908181526020018280546103a990610f04565b80156103f65780601f106103cb576101008083540402835291602001916103f6565b820191906000526020600020905b8154815290600101906020018083116103d957829003601f168201915b505050505082828151811061040e5761040d610fc7565b5b6020026020010181905250808061042490611025565b9150506102e7565b50809250505090565b60008054906101000a900473ffffffffffffffffffffffffffffffffffffffff1673ffffffffffffffffffffffffffffffffffffffff163373ffffffffffffffffffffffffffffffffffffffff16146104c3576040517f973d02cb0000000000000000000000000000000000000000000000000000000081526004016104ba906110df565b60405180910390fd5b60006040518060400160405280848152602001838152509050600281908060018154018082558091505060019003906000526020600020906002020160009091909190915060008201518160000190805190602001906105249291906107d4565b50602082015181600101908051906020019061054192919061085a565b505050505050565b82600160003373ffffffffffffffffffffffffffffffffffffffff1673ffffffffffffffffffffffffffffffffffffffff168152602001908152602001600020600101908051906020019061059f9291906107d4565b5081600160003373ffffffffffffffffffffffffffffffffffffffff1673ffffffffffffffffffffffffffffffffffffffff16815260200190815260200160002060000190805190602001906105f692919061085a565b5080600160003373ffffffffffffffffffffffffffffffffffffffff1673ffffffffffffffffffffffffffffffffffffffff168152602001908152602001600020600201908051906020019061064d92919061085a565b507f71a1a417adf253f720733ed5892f8333431725a682eb66b5842e77bd76fa22f33360405161067d9190611140565b60405180910390a1505050565b6000600160003373ffffffffffffffffffffffffffffffffffffffff1673ffffffffffffffffffffffffffffffffffffffff16815260200190815260200160002060010180546106d990610f04565b9050111561071c576040517f973d02cb00000000000000000000000000000000000000000000000000000000815260040161071390610fa7565b60405180910390fd5b80600280549050811061072e57600080fd5b600160003373ffffffffffffffffffffffffffffffffffffffff1673ffffffffffffffffffffffffffffffffffffffff1681526020019081526020016000206003018290806001815401808255809150506001900390600052602060002001600090919091909150557f9e6e3d4ece271b2432d4f9cebf044bd93bd2d4f29cceb3ed86510ca3b570984982336040516107c892919061116a565b60405180910390a15050565b8280546107e090610f04565b90600052602060002090601f0160209004810192826108025760008555610849565b82601f1061081b57805160ff1916838001178555610849565b82800160010185558215610849579182015b8281111561084857825182559160200191906001019061082d565b5b50905061085691906108ba565b5090565b8280548282559060005260206000209081019282156108a9579160200282015b828111156108a85782518290805190602001906108989291906107d4565b509160200191906001019061087a565b5b5090506108b691906108d7565b5090565b5b808211156108d35760008160009055506001016108bb565b5090565b5b808211156108f757600081816108ee91906108fb565b506001016108d8565b5090565b50805461090790610f04565b6000825580601f106109195750610938565b601f01602090049060005260206000209081019061093791906108ba565b5b50565b6000604051905090565b600080fd5b600080fd5b6000819050919050565b6109628161094f565b811461096d57600080fd5b50565b60008135905061097f81610959565b92915050565b60006020828403121561099b5761099a610945565b5b60006109a984828501610970565b91505092915050565b600081519050919050565b600082825260208201905092915050565b60005b838110156109ec5780820151818401526020810190506109d1565b838111156109fb576000848401525b50505050565b6000601f19601f8301169050919050565b6000610a1d826109b2565b610a2781856109bd565b9350610a378185602086016109ce565b610a4081610a01565b840191505092915050565b60006020820190508181036000830152610a658184610a12565b905092915050565b600081519050919050565b600082825260208201905092915050565b6000819050602082019050919050565b600082825260208201905092915050565b6000610ab5826109b2565b610abf8185610a99565b9350610acf8185602086016109ce565b610ad881610a01565b840191505092915050565b6000610aef8383610aaa565b905092915050565b6000602082019050919050565b6000610b0f82610a6d565b610b198185610a78565b935083602082028501610b2b85610a89565b8060005b85811015610b675784840389528151610b488582610ae3565b9450610b5383610af7565b925060208a01995050600181019050610b2f565b50829750879550505050505092915050565b60006020820190508181036000830152610b938184610b04565b905092915050565b600080fd5b600080fd5b7f4e487b7100000000000000000000000000000000000000000000000000000000600052604160045260246000fd5b610bdd82610a01565b810181811067ffffffffffffffff82111715610bfc57610bfb610ba5565b5b80604052505050565b6000610c0f61093b565b9050610c1b8282610bd4565b919050565b600067ffffffffffffffff821115610c3b57610c3a610ba5565b5b610c4482610a01565b9050602081019050919050565b82818337600083830152505050565b6000610c73610c6e84610c20565b610c05565b905082815260208101848484011115610c8f57610c8e610ba0565b5b610c9a848285610c51565b509392505050565b600082601f830112610cb757610cb6610b9b565b5b8135610cc7848260208601610c60565b91505092915050565b600067ffffffffffffffff821115610ceb57610cea610ba5565b5b602082029050602081019050919050565b600080fd5b6000610d14610d0f84610cd0565b610c05565b90508083825260208201905060208402830185811115610d3757610d36610cfc565b5b835b81811015610d7e57803567ffffffffffffffff811115610d5c57610d5b610b9b565b5b808601610d698982610ca2565b85526020850194505050602081019050610d39565b5050509392505050565b600082601f830112610d9d57610d9c610b9b565b5b8135610dad848260208601610d01565b91505092915050565b60008060408385031215610dcd57610dcc610945565b5b600083013567ffffffffffffffff811115610deb57610dea61094a565b5b610df785828601610ca2565b925050602083013567ffffffffffffffff811115610e1857610e1761094a565b5b610e2485828601610d88565b9150509250929050565b600080600060608486031215610e4757610e46610945565b5b600084013567ffffffffffffffff811115610e6557610e6461094a565b5b610e7186828701610ca2565b935050602084013567ffffffffffffffff811115610e9257610e9161094a565b5b610e9e86828701610d88565b925050604084013567ffffffffffffffff811115610ebf57610ebe61094a565b5b610ecb86828701610d88565b9150509250925092565b7f4e487b7100000000000000000000000000000000000000000000000000000000600052602260045260246000fd5b60006002820490506001821680610f1c57607f821691505b602082108103610f2f57610f2e610ed5565b5b50919050565b7f4f6e6c79206170706c6963616e74732063616e2063616c6c207468697320667560008201527f6e6374696f6e0000000000000000000000000000000000000000000000000000602082015250565b6000610f916026836109bd565b9150610f9c82610f35565b604082019050919050565b60006020820190508181036000830152610fc081610f84565b9050919050565b7f4e487b7100000000000000000000000000000000000000000000000000000000600052603260045260246000fd5b7f4e487b7100000000000000000000000000000000000000000000000000000000600052601160045260246000fd5b60006110308261094f565b91507fffffffffffffffffffffffffffffffffffffffffffffffffffffffffffffffff820361106257611061610ff6565b5b600182019050919050565b7f4f6e6c7920746865207265637275697465722063616e2063616c6c207468697360008201527f2066756e6374696f6e0000000000000000000000000000000000000000000000602082015250565b60006110c96029836109bd565b91506110d48261106d565b604082019050919050565b600060208201905081810360008301526110f8816110bc565b9050919050565b600073ffffffffffffffffffffffffffffffffffffffff82169050919050565b600061112a826110ff565b9050919050565b61113a8161111f565b82525050565b60006020820190506111556000830184611131565b92915050565b6111648161094f565b82525050565b600060408201905061117f600083018561115b565b61118c6020830184611131565b939250505056fea26469706673582212204f0261e469ca2a2ce5060913f18fa5bd7ef382d83aaa2be24d4dd51815b31d4764736f6c634300080d0033",
  "immutableReferences": {},
  "source": "// SPDX-License-Identifier: GPL-3.0\n\npragma solidity >=0.7.0 <0.9.0;\n\n/** \n * @title Recruitment Contract\n * @author Edicha Joshua <mredichaj>\n * @notice Recruitment contract for posting a job and applicants applying for it\n * Note: This is just experimental. The jobs are stored on the blockchain which is an anti-pattern because blockchain\n * should not be used as database. Job postings must be stored off-chain, only some of the recruitment\n * processes should be handled by smart contracts\n */\ncontract Recruitment {\n  \n  address recruiter; // deployer's address\n  \n  /* Applicant data structure */\n  struct Applicant {\n    string[] qualifications;\n    string email;\n    string[] skills;\n    uint[] jobs;\n  }\n  \n  /* Job data structure */\n  struct Job {\n    string title;\n    string[] requirements;\n  }\n  \n  /* map applicants addresses to Applicant data */\n  mapping(address => Applicant) applicants;\n  Job[] public jobs; // stores jobs\n\n  /// @dev emit when an applicant apply for a job\n  /// @param jobId index of job\n  /// @param applicantAddr address of the applicant\n  event JobApplication(uint jobId, address applicantAddr);\n\n  /// @dev emit when a new applicant register\n  event NewApplicant(address applicant);\n\n  /// @dev throws on unauthorized function calls\n  /// @param msg description\n  error Unauthorized(string msg);\n  \n  /**\n   * @dev Gate keeper :) - only recruiter can use the function guarded by this modifier \n   */\n  modifier onlyRecruiter {\n    if(msg.sender != recruiter) \n      revert Unauthorized(\"Only the recruiter can call this function\");\n    _; // execute code guided by this modifier\n  }\n\n  /**\n   * @dev Only applicants can use functions guarded by this modifier\n   */\n  modifier onlyApplicant {\n    if(bytes(applicants[msg.sender].email).length > 0) \n      revert Unauthorized(\"Only applicants can call this function\");\n    _;\n  }\n  \n  /** \n   * @dev Checks if Job exists\n   * @param jobIndex index of job\n   */\n  modifier jobExists(uint jobIndex) {\n    require(jobIndex < jobs.length);\n    _; // execute code guided by this modifier\n  }\n  \n  /* Constructor */\n  constructor() {\n    recruiter = msg.sender; // Whoever deployed this contract is the recruiter\n  }\n  \n  /** \n   * @notice Post new job\n   * @dev only recruiter can post jobs\n   * @param title the title of the job [string]\n   * @param requirements array of requirements for the job [array of string]\n   */\n  function postAJob(string memory title, string[] memory requirements) public onlyRecruiter {\n    Job memory job = Job(title, requirements);\n    jobs.push(job);\n  }\n  \n  /** \n   * @notice Register as an applicant [any one can register]\n   * @param email applicant email\n   * @param qualifications string array of applicant's qualifications\n   * @param skills string array of applicant's skills\n   */\n  function newApplicant(string memory email, string[] memory qualifications, string[] memory skills) public {\n    applicants[msg.sender].email = email;\n    applicants[msg.sender].qualifications = qualifications;\n    applicants[msg.sender].skills = skills;\n\n    emit NewApplicant(msg.sender); // emit event\n  }\n  \n  /** \n   * @notice apply for a job\n   * @param job index of job\n   */\n  function applyForAJob(uint job) public onlyApplicant jobExists(job) {\n    applicants[msg.sender].jobs.push(job);\n\n    emit JobApplication(job, msg.sender); // emit event\n  }\n  \n  /**\n   * @notice Get titles of the jobs applied for.\n   * @dev can only be used by applicants\n   */\n  function getAppliedJobs() public onlyApplicant view returns (string[] memory) {\n    uint totalJobs = applicants[msg.sender].jobs.length;\n\n    string[] memory jobTitles = new string[](totalJobs);\n\n    for(uint job = 0; job < totalJobs; job++) {\n      jobTitles[job] = jobs[applicants[msg.sender].jobs[job]].title;\n    }\n    \n    return jobTitles;\n  }\n  \n  /** And more functions */\n}",
  "sourcePath": "/Users/josh/Bytangle/Practice/Web3.0 & dApps/contracts/recruitment/contracts/Recruitment.sol",
  "compiler": {
    "name": "solc",
    "version": "0.8.13+commit.abaa5c0e.Emscripten.clang"
  },
  "schemaVersion": "3.4.10",
  "updatedAt": "2022-10-05T20:26:01.770Z",
  "networkType": "ethereum",
  "devdoc": {
    "author": "Edicha Joshua <mredichaj>",
    "errors": {
      "Unauthorized(string)": [
        {
          "details": "throws on unauthorized function calls",
          "params": {
            "msg": "description"
          }
        }
      ]
    },
    "events": {
      "JobApplication(uint256,address)": {
        "details": "emit when an applicant apply for a job",
        "params": {
          "applicantAddr": "address of the applicant",
          "jobId": "index of job"
        }
      },
      "NewApplicant(address)": {
        "details": "emit when a new applicant register"
      }
    },
    "kind": "dev",
    "methods": {
      "applyForAJob(uint256)": {
        "params": {
          "job": "index of job"
        }
      },
      "getAppliedJobs()": {
        "details": "can only be used by applicants"
      },
      "newApplicant(string,string[],string[])": {
        "params": {
          "email": "applicant email",
          "qualifications": "string array of applicant's qualifications",
          "skills": "string array of applicant's skills"
        }
      },
      "postAJob(string,string[])": {
        "details": "only recruiter can post jobs",
        "params": {
          "requirements": "array of requirements for the job [array of string]",
          "title": "the title of the job [string]"
        }
      }
    },
    "title": "Recruitment Contract",
    "version": 1
  },
  "userdoc": {
    "kind": "user",
    "methods": {
      "applyForAJob(uint256)": {
        "notice": "apply for a job"
      },
      "getAppliedJobs()": {
        "notice": "Get titles of the jobs applied for."
      },
      "newApplicant(string,string[],string[])": {
        "notice": "Register as an applicant [any one can register]"
      },
      "postAJob(string,string[])": {
        "notice": "Post new job"
      }
    },
    "notice": "Recruitment contract for posting a job and applicants applying for it Note: This is just experimental. The jobs are stored on the blockchain which is an anti-pattern because blockchain should not be used as database. Job postings must be stored off-chain, only some of the recruitment processes should be handled by smart contracts",
    "version": 1
  }
}